{
  "abi": [
    {
      "inputs": [
        {
          "internalType": "address",
          "name": "lendingProtocol",
          "type": "address"
        },
        {
          "internalType": "address",
          "name": "uniswapRouter",
          "type": "address"
        },
        {
          "internalType": "address",
          "name": "uniswapFactory",
          "type": "address"
        },
        {
          "internalType": "address",
          "name": "usdc",
          "type": "address"
        }
      ],
      "stateMutability": "nonpayable",
      "type": "constructor"
    },
    {
      "anonymous": false,
      "inputs": [
        {
          "indexed": true,
          "internalType": "address",
          "name": "previousOwner",
          "type": "address"
        },
        {
          "indexed": true,
          "internalType": "address",
          "name": "newOwner",
          "type": "address"
        }
      ],
      "name": "OwnershipTransferred",
      "type": "event"
    },
    {
      "inputs": [
        {
          "internalType": "address[]",
          "name": "path",
          "type": "address[]"
        },
        {
          "internalType": "uint256",
          "name": "amountOut",
          "type": "uint256"
        }
      ],
      "name": "liquidate",
      "outputs": [],
      "stateMutability": "nonpayable",
      "type": "function"
    },
    {
      "inputs": [],
      "name": "owner",
      "outputs": [
        {
          "internalType": "address",
          "name": "",
          "type": "address"
        }
      ],
      "stateMutability": "view",
      "type": "function"
    },
    {
      "inputs": [],
      "name": "renounceOwnership",
      "outputs": [],
      "stateMutability": "nonpayable",
      "type": "function"
    },
    {
      "inputs": [
        {
          "internalType": "address",
          "name": "newOwner",
          "type": "address"
        }
      ],
      "name": "transferOwnership",
      "outputs": [],
      "stateMutability": "nonpayable",
      "type": "function"
    },
    {
      "inputs": [
        {
          "internalType": "address",
          "name": "sender",
          "type": "address"
        },
        {
          "internalType": "uint256",
          "name": "amount0",
          "type": "uint256"
        },
        {
          "internalType": "uint256",
          "name": "amount1",
          "type": "uint256"
        },
        {
          "internalType": "bytes",
          "name": "data",
          "type": "bytes"
        }
      ],
      "name": "uniswapV2Call",
      "outputs": [],
      "stateMutability": "nonpayable",
      "type": "function"
    },
    {
      "inputs": [],
      "name": "withdraw",
      "outputs": [],
      "stateMutability": "nonpayable",
      "type": "function"
    },
    {
      "inputs": [
        {
          "internalType": "address",
          "name": "token",
          "type": "address"
        },
        {
          "internalType": "uint256",
          "name": "amount",
          "type": "uint256"
        }
      ],
      "name": "withdrawTokens",
      "outputs": [],
      "stateMutability": "nonpayable",
      "type": "function"
    },
    {
      "stateMutability": "payable",
      "type": "receive"
    }
  ],
  "bytecode": {
    "object": "0x61012060405234801561001157600080fd5b5060405162000cf438038062000cf48339810160408190526100329161013e565b61003b336100d2565b6001600160a01b0380851660805283811660a081905290831660c052604080516315ab88c960e31b8152905163ad5c4648916004808201926020929091908290030181865afa158015610092573d6000803e3d6000fd5b505050506040513d601f19601f820116820180604052508101906100b69190610192565b6001600160a01b0390811660e0521661010052506101b4915050565b600080546001600160a01b038381166001600160a01b0319831681178455604051919092169283917f8be0079c531659141344cd1fd0a4f28419497f9722a3daafe3b4186f6b6457e09190a35050565b80516001600160a01b038116811461013957600080fd5b919050565b6000806000806080858703121561015457600080fd5b61015d85610122565b935061016b60208601610122565b925061017960408601610122565b915061018760608601610122565b905092959194509250565b6000602082840312156101a457600080fd5b6101ad82610122565b9392505050565b60805160a05160c05160e05161010051610af7620001fd600039600061043901526000505060006101b1015260006105c501526000818161040401526104ab0152610af76000f3fe6080604052600436106100745760003560e01c80633ccfd60b1161004e5780633ccfd60b146100e2578063715018a6146100f75780638da5cb5b1461010c578063f2fde38b1461013857600080fd5b806301acaf6e1461008057806306b091f9146100a257806310d1e85c146100c257600080fd5b3661007b57005b600080fd5b34801561008c57600080fd5b506100a061009b366004610805565b610158565b005b3480156100ae57600080fd5b506100a06100bd366004610895565b610324565b3480156100ce57600080fd5b506100a06100dd3660046108c1565b6103df565b3480156100ee57600080fd5b506100a061063c565b34801561010357600080fd5b506100a06106d1565b34801561011857600080fd5b50600054604080516001600160a01b039092168252519081900360200190f35b34801561014457600080fd5b506100a0610153366004610957565b6106e5565b600081116101ad5760405162461bcd60e51b815260206004820181905260248201527f416d6f756e744f7574206d7573742062652067726561746572207468616e203060448201526064015b60405180910390fd5b60007f00000000000000000000000000000000000000000000000000000000000000006001600160a01b031663e6a43905858560008181106101f1576101f161097b565b90506020020160208101906102069190610957565b868660018181106102195761021961097b565b905060200201602081019061022e9190610957565b6040516001600160e01b031960e085901b1681526001600160a01b03928316600482015291166024820152604401602060405180830381865afa158015610279573d6000803e3d6000fd5b505050506040513d601f19601f8201168201806040525081019061029d9190610991565b604080516001600160a01b0383166020808301829052835180840390910181528284019384905263022c0d9f60e01b90935292935063022c0d9f916102ec9160009187913091906044016109ae565b600060405180830381600087803b15801561030657600080fd5b505af115801561031a573d6000803e3d6000fd5b5050505050505050565b61032c61075b565b60405163a9059cbb60e01b8152336004820152602481018290526001600160a01b0383169063a9059cbb906044016020604051808303816000875af1158015610379573d6000803e3d6000fd5b505050506040513d601f19601f8201168201806040525081019061039d9190610a1a565b6103db5760405162461bcd60e51b815260206004820152600f60248201526e15da5d1a191c985dc819985a5b1959608a1b60448201526064016101a4565b5050565b60006103ed82840184610957565b60405163095ea7b360e01b81526001600160a01b037f0000000000000000000000000000000000000000000000000000000000000000811660048301526304c4b40060248301529192507f00000000000000000000000000000000000000000000000000000000000000009091169063095ea7b3906044016020604051808303816000875af1158015610484573d6000803e3d6000fd5b505050506040513d601f19601f820116820180604052508101906104a89190610a1a565b507f00000000000000000000000000000000000000000000000000000000000000006001600160a01b0316639220ee6b6040518163ffffffff1660e01b8152600401600060405180830381600087803b15801561050457600080fd5b505af1158015610518573d6000803e3d6000fd5b50505050600080826001600160a01b0316630902f1ac6040518163ffffffff1660e01b8152600401606060405180830381865afa15801561055d573d6000803e3d6000fd5b505050506040513d601f19601f820116820180604052508101906105819190610a58565b506040516385f8c25960e01b8152600481018990526001600160701b0392831660248201819052919092166044830181905290935091506000906001600160a01b037f000000000000000000000000000000000000000000000000000000000000000016906385f8c25990606401602060405180830381865afa15801561060c573d6000803e3d6000fd5b505050506040513d601f19601f820116820180604052508101906106309190610aa8565b50505050505050505050565b61064461075b565b604051600090339047908381818185875af1925050503d8060008114610686576040519150601f19603f3d011682016040523d82523d6000602084013e61068b565b606091505b50509050806106ce5760405162461bcd60e51b815260206004820152600f60248201526e15da5d1a191c985dc819985a5b1959608a1b60448201526064016101a4565b50565b6106d961075b565b6106e360006107b5565b565b6106ed61075b565b6001600160a01b0381166107525760405162461bcd60e51b815260206004820152602660248201527f4f776e61626c653a206e6577206f776e657220697320746865207a65726f206160448201526564647265737360d01b60648201526084016101a4565b6106ce816107b5565b6000546001600160a01b031633146106e35760405162461bcd60e51b815260206004820181905260248201527f4f776e61626c653a2063616c6c6572206973206e6f7420746865206f776e657260448201526064016101a4565b600080546001600160a01b038381166001600160a01b0319831681178455604051919092169283917f8be0079c531659141344cd1fd0a4f28419497f9722a3daafe3b4186f6b6457e09190a35050565b60008060006040848603121561081a57600080fd5b833567ffffffffffffffff8082111561083257600080fd5b818601915086601f83011261084657600080fd5b81358181111561085557600080fd5b8760208260051b850101111561086a57600080fd5b6020928301989097509590910135949350505050565b6001600160a01b03811681146106ce57600080fd5b600080604083850312156108a857600080fd5b82356108b381610880565b946020939093013593505050565b6000806000806000608086880312156108d957600080fd5b85356108e481610880565b94506020860135935060408601359250606086013567ffffffffffffffff8082111561090f57600080fd5b818801915088601f83011261092357600080fd5b81358181111561093257600080fd5b89602082850101111561094457600080fd5b9699959850939650602001949392505050565b60006020828403121561096957600080fd5b813561097481610880565b9392505050565b634e487b7160e01b600052603260045260246000fd5b6000602082840312156109a357600080fd5b815161097481610880565b84815260006020858184015260018060a01b038516604084015260806060840152835180608085015260005b818110156109f65785810183015185820160a0015282016109da565b50600060a0828601015260a0601f19601f8301168501019250505095945050505050565b600060208284031215610a2c57600080fd5b8151801515811461097457600080fd5b80516001600160701b0381168114610a5357600080fd5b919050565b600080600060608486031215610a6d57600080fd5b610a7684610a3c565b9250610a8460208501610a3c565b9150604084015163ffffffff81168114610a9d57600080fd5b809150509250925092565b600060208284031215610aba57600080fd5b505191905056fea2646970667358221220e462925018c42771f5162b6d01e42b704eeba37f8d1faba400904b516b92378c64736f6c63430008110033",
    "linkReferences": {}
  },
  "methodIdentifiers": {
    "liquidate(address[],uint256)": "01acaf6e",
    "owner()": "8da5cb5b",
    "renounceOwnership()": "715018a6",
    "transferOwnership(address)": "f2fde38b",
    "uniswapV2Call(address,uint256,uint256,bytes)": "10d1e85c",
    "withdraw()": "3ccfd60b",
    "withdrawTokens(address,uint256)": "06b091f9"
  },
  "id": 1
}