{
  "abi": [
    {
      "inputs": [
        {
          "internalType": "address",
          "name": "usdc",
          "type": "address"
        }
      ],
      "stateMutability": "payable",
      "type": "constructor"
    },
    {
      "inputs": [],
      "name": "liquidatePosition",
      "outputs": [],
      "stateMutability": "nonpayable",
      "type": "function"
    }
  ],
  "bytecode": {
    "object": "0x60a06040526040516102eb3803806102eb8339810160408190526100229161008e565b34670de0b6b3a76400001461007d5760405162461bcd60e51b815260206004820152601d60248201527f496e697469616c2076616c7565206d7573742062652031206574686572000000604482015260640160405180910390fd5b6001600160a01b03166080526100be565b6000602082840312156100a057600080fd5b81516001600160a01b03811681146100b757600080fd5b9392505050565b6080516102136100d86000396000606201526102136000f3fe608060405234801561001057600080fd5b506004361061002b5760003560e01c80639220ee6b14610030575b600080fd5b61003861003a565b005b6040516323b872dd60e01b81523360048201523060248201526304c4b40060448201526000907f00000000000000000000000000000000000000000000000000000000000000006001600160a01b0316906323b872dd906064016020604051808303816000875af11580156100b3573d6000803e3d6000fd5b505050506040513d601f19601f820116820180604052508101906100d791906101b4565b9050806101225760405162461bcd60e51b8152602060048201526014602482015273151c985b9cd9995c881554d110c819985a5b195960621b60448201526064015b60405180910390fd5b604051600090339047908381818185875af1925050503d8060008114610164576040519150601f19603f3d011682016040523d82523d6000602084013e610169565b606091505b50509050806101b05760405162461bcd60e51b8152602060048201526013602482015272151c985b9cd9995c881155120819985a5b1959606a1b6044820152606401610119565b5050565b6000602082840312156101c657600080fd5b815180151581146101d657600080fd5b939250505056fea264697066735822122083697749c95f9edd054dfba3481246e9ded2f06a71578234ac8d7d15dd29829c64736f6c63430008110033",
    "linkReferences": {}
  },
  "methodIdentifiers": {
    "liquidatePosition()": "9220ee6b"
  },
  "id": 1
}