{
  "abi": [
    {
      "anonymous": false,
      "inputs": [
        {
          "indexed": true,
          "internalType": "address",
          "name": "previousOwner",
          "type": "address"
        },
        {
          "indexed": true,
          "internalType": "address",
          "name": "newOwner",
          "type": "address"
        }
      ],
      "name": "OwnershipTransferred",
      "type": "event"
    },
    {
      "inputs": [
        {
          "internalType": "address",
          "name": "priceLowerPool",
          "type": "address"
        },
        {
          "internalType": "address",
          "name": "priceHigherPool",
          "type": "address"
        },
        {
          "internalType": "uint256",
          "name": "borrowETH",
          "type": "uint256"
        }
      ],
      "name": "arbitrage",
      "outputs": [],
      "stateMutability": "nonpayable",
      "type": "function"
    },
    {
      "inputs": [],
      "name": "owner",
      "outputs": [
        {
          "internalType": "address",
          "name": "",
          "type": "address"
        }
      ],
      "stateMutability": "view",
      "type": "function"
    },
    {
      "inputs": [],
      "name": "renounceOwnership",
      "outputs": [],
      "stateMutability": "nonpayable",
      "type": "function"
    },
    {
      "inputs": [
        {
          "internalType": "address",
          "name": "newOwner",
          "type": "address"
        }
      ],
      "name": "transferOwnership",
      "outputs": [],
      "stateMutability": "nonpayable",
      "type": "function"
    },
    {
      "inputs": [
        {
          "internalType": "address",
          "name": "sender",
          "type": "address"
        },
        {
          "internalType": "uint256",
          "name": "amount0",
          "type": "uint256"
        },
        {
          "internalType": "uint256",
          "name": "amount1",
          "type": "uint256"
        },
        {
          "internalType": "bytes",
          "name": "data",
          "type": "bytes"
        }
      ],
      "name": "uniswapV2Call",
      "outputs": [],
      "stateMutability": "nonpayable",
      "type": "function"
    },
    {
      "inputs": [],
      "name": "withdraw",
      "outputs": [],
      "stateMutability": "nonpayable",
      "type": "function"
    },
    {
      "inputs": [
        {
          "internalType": "address",
          "name": "token",
          "type": "address"
        },
        {
          "internalType": "uint256",
          "name": "amount",
          "type": "uint256"
        }
      ],
      "name": "withdrawTokens",
      "outputs": [],
      "stateMutability": "nonpayable",
      "type": "function"
    }
  ],
  "bytecode": {
    "object": "0x608060405234801561001057600080fd5b5061001a3361001f565b61006f565b600080546001600160a01b038381166001600160a01b0319831681178455604051919092169283917f8be0079c531659141344cd1fd0a4f28419497f9722a3daafe3b4186f6b6457e09190a35050565b61051a8061007e6000396000f3fe608060405234801561001057600080fd5b506004361061007d5760003560e01c8063715018a61161005b578063715018a6146100b45780638da5cb5b146100bc578063b09de2f9146100db578063f2fde38b146100ee57600080fd5b806306b091f91461008257806310d1e85c146100975780633ccfd60b146100ac575b600080fd5b6100956100903660046103a6565b610101565b005b6100956100a53660046103d0565b5050505050565b6100956101c1565b610095610256565b600054604080516001600160a01b039092168252519081900360200190f35b6100956100e9366004610464565b505050565b6100956100fc3660046104a0565b61026a565b6101096102e0565b60405163a9059cbb60e01b8152336004820152602481018290526001600160a01b0383169063a9059cbb906044016020604051808303816000875af1158015610156573d6000803e3d6000fd5b505050506040513d601f19601f8201168201806040525081019061017a91906104c2565b6101bd5760405162461bcd60e51b815260206004820152600f60248201526e15da5d1a191c985dc819985a5b1959608a1b60448201526064015b60405180910390fd5b5050565b6101c96102e0565b604051600090339047908381818185875af1925050503d806000811461020b576040519150601f19603f3d011682016040523d82523d6000602084013e610210565b606091505b50509050806102535760405162461bcd60e51b815260206004820152600f60248201526e15da5d1a191c985dc819985a5b1959608a1b60448201526064016101b4565b50565b61025e6102e0565b610268600061033a565b565b6102726102e0565b6001600160a01b0381166102d75760405162461bcd60e51b815260206004820152602660248201527f4f776e61626c653a206e6577206f776e657220697320746865207a65726f206160448201526564647265737360d01b60648201526084016101b4565b6102538161033a565b6000546001600160a01b031633146102685760405162461bcd60e51b815260206004820181905260248201527f4f776e61626c653a2063616c6c6572206973206e6f7420746865206f776e657260448201526064016101b4565b600080546001600160a01b038381166001600160a01b0319831681178455604051919092169283917f8be0079c531659141344cd1fd0a4f28419497f9722a3daafe3b4186f6b6457e09190a35050565b80356001600160a01b03811681146103a157600080fd5b919050565b600080604083850312156103b957600080fd5b6103c28361038a565b946020939093013593505050565b6000806000806000608086880312156103e857600080fd5b6103f18661038a565b94506020860135935060408601359250606086013567ffffffffffffffff8082111561041c57600080fd5b818801915088601f83011261043057600080fd5b81358181111561043f57600080fd5b89602082850101111561045157600080fd5b9699959850939650602001949392505050565b60008060006060848603121561047957600080fd5b6104828461038a565b92506104906020850161038a565b9150604084013590509250925092565b6000602082840312156104b257600080fd5b6104bb8261038a565b9392505050565b6000602082840312156104d457600080fd5b815180151581146104bb57600080fdfea2646970667358221220046e60dca3b34fd2931ec6398ca0b6adcebc198e7e51b787ffccf9d01676286464736f6c63430008110033",
    "linkReferences": {}
  },
  "methodIdentifiers": {
    "arbitrage(address,address,uint256)": "b09de2f9",
    "owner()": "8da5cb5b",
    "renounceOwnership()": "715018a6",
    "transferOwnership(address)": "f2fde38b",
    "uniswapV2Call(address,uint256,uint256,bytes)": "10d1e85c",
    "withdraw()": "3ccfd60b",
    "withdrawTokens(address,uint256)": "06b091f9"
  },
  "id": 0
}